:040000000CEF00F011
:10000800FACF59F9FBCF5AF9E9CF5BF92DED2EF06C
:1000180008EE0DF05C0EF66E000EF76E10EE10F0A6
:1000280025EC00F000EE00F018EE0DF01EEC00F0EC
:100038009BEF1FF0EE6AE550E150FCE1E250FAE177
:1000480012000900F5CFEEFFE550E150FAE1E25069
:10005800F8E112002C012C012C012C01FFFF0100FA
:10006800010001008BEF13F081B63DEF00F03FEF88
:1000780000F0D6EF01F0030E09010901546F000EDC
:100088000901556FD89008010801023509012A6F46
:1000980008010801033509012B6F080100C82CF974
:1000A800080101C82DF9050ED89009012C372D3704
:1000B800E82E58EF00F0000E09012C2509012E6FDB
:1000C800000E09012D2109012F6F09012A5109018B
:1000D8002E25E96E09012B5109012F21EA6E09012C
:1000E800EECF52F90901EDCF53F994EC2DF0090147
:1000F80053515211D8B483EF00F085EF00F0F4EFBC
:1001080000F0030E090109013C6F000E09013D6F63
:10011800D89008010801023509012A6F0801080171
:10012800033509012B6F080100C82CF9080101C823
:100138002DF9050ED89009012C372D37E82E9EEFA2
:1001480000F0000E09012C2509012E6F000E09018F
:100158002D2109012F6F09012A5109012E25E96E68
:1001680009012B5109012F21EA6E0901EECF3AF955
:100178000901EDCF3BF9DAEC2EF0D890080108011F
:1001880002350901306F0801080103350901316F93
:10019800080100C832F9080101C833F9050ED890E2
:1001A800090132373337E82ED3EF00F0000E09018A
:1001B80032250901346F000E090133210901356F19
:1001C8000901305109013425E96E0901315109014C
:1001D8003521EA6E09013AC9EEFF09013BC9EDFF75
:1001E800FF0E080108010025FF0E08010121800B00
:1001F800D8A401EF01F003EF01F0D6EF01F0070EEC
:1002080009010901546F000E0901556FD8900801C2
:100218000801023509012A6F08010801033509019F
:100228002B6F080100C82CF9080101C82DF9050E2B
:10023800D89009012C372D37E82E1CEF01F0E00E7D
:1002480009012C2509012E6FFF0E09012D21090135
:100258002F6F000E09012E250901306F000E0901CC
:100268002F210901316F09012A5109013025E96E51
:1002780009012B5109013121EA6E0901EECF52F92A
:100288000901EDCF53F994EC2DF0090153515211A6
:10029800D8B451EF01F053EF01F0D6EF01F0070E9B
:1002A800090109013C6F000E09013D6FD890080152
:1002B8000801023509012A6F0801080103350901FF
:1002C8002B6F080100C82CF9080101C82DF9050E8B
:1002D800D89009012C372D37E82E6CEF01F0E00E8D
:1002E80009012C2509012E6FFF0E09012D21090195
:1002F8002F6F000E09012E250901306F000E09012C
:100308002F210901316F09012A5109013025E96EB0
:1003180009012B5109013121EA6E0901EECF3AF9A1
:100328000901EDCF3BF9DAEC2EF0D890080108016D
:1003380002350901326F0801080103350901336FDD
:10034800080100C834F9080101C835F9050ED8902C
:10035800090134373537E82EABEF01F0E00E09011B
:1003680034250901366FFF0E090135210901376F60
:10037800000E090136250901386F000E09013721E1
:100388000901396F0901325109013825E96E09015E
:10039800335109013921EA6E09013AC9EEFF090111
:1003A8003BC9EDFF81B8DBEF01F0DDEF01F06BEF4A
:1003B80003F0050E09010901546F000E0901556F7C
:1003C800D89008010801023509012A6F08010801BF
:1003D800033509012B6F080100C82CF9080101C871
:1003E8002DF9050ED89009012C372D37E82EF6EF98
:1003F80001F0000E09012C2509012E6F000E0901DC
:100408002D2109012F6F09012A5109012E25E96EB5
:1004180009012B5109012F21EA6E0901EECF52F98A
:100428000901EDCF53F994EC2DF009015351521104
:10043800D8B421EF02F023EF02F092EF02F0050E9C
:10044800090109013C6F000E09013D6FD8900801B0
:100458000801023509012A6F08010801033509015D
:100468002B6F080100C82CF9080101C82DF9050EE9
:10047800D89009012C372D37E82E3CEF02F0000EFA
:1004880009012C2509012E6F000E09012D210901F2
:100498002F6F09012A5109012E25E96E09012B51F7
:1004A80009012F21EA6E0901EECF3AF90901EDCFD2
:1004B8003BF9DAEC2EF0D890080108010235090161
:1004C800306F0801080103350901316F080100C8C0
:1004D80032F9080101C833F9050ED89009013237FD
:1004E8003337E82E71EF02F0000E090132250901B9
:1004F800346F000E090133210901356F09013051AC
:1005080009013425E96E0901315109013521EA6EE5
:1005180009013AC9EEFF09013BC9EDFF010E0801C7
:100528000801022509012A6F000E080108010321AC
:1005380009012B6F09012B51800A800F100ED8B4C6
:100548002A5DD8B0AAEF02F0ACEF02F06BEF03F02F
:100558000D0E09010901546F000E0901556FD8905D
:1005680008010801023509012A6F0801080103354D
:1005780009012B6F080100C82CF9080101C82DF9E1
:10058800050ED89009012C372D37E82EC5EF02F05B
:10059800000E09012C2509012E6F000E09012D21DD
:1005A80009012F6F09012A5109012E25E96E090158
:1005B8002B5109012F21EA6E0901EECF52F90901E9
:1005C800EDCF53F994EC2DF0090153515211D8B4E1
:1005D800F0EF02F0F2EF02F06BEF03F00D0E0901FD
:1005E80009013C6F000E09013D6F080100C82AF996
:1005F800080101C82BF9050ED89009012A372B37B5
:10060800E82E00EF03F0D89008010801023509012F
:100618002C6F08010801033509012D6F020E09012D
:100628002C27000E2D23000E09012C2509012E6F01
:10063800000E09012D2109012F6F09012A51090115
:100648002E25E96E09012B5109012F21EA6E0901B6
:10065800EECF3AF90901EDCF3BF9DAEC2EF00801BB
:1006680000C830F9080101C831F9050ED890090110
:1006780030373137E82E3AEF03F0D89008010801F7
:1006880002350901326F0801080103350901336F8A
:10069800020E09013227000E3323000E090132250C
:1006A8000901346F000E090133210901356F090171
:1006B800305109013425E96E09013151090135210B
:1006C800EA6E09013AC9EEFF09013BC9EDFF81B4A1
:1006D80070EF03F072EF03F009EF05F00D0E09015A
:1006E8000901546F000E0901556FD89008010801DF
:1006F800023509012A6F08010801033509012B6F2A
:10070800080100C82CF9080101C82DF9050ED89078
:1007180009012C372D37E82E8BEF03F0000E090165
:100728002C2509012E6F000E09012D2109012F6FBB
:1007380009012A5109012E25E96E09012B510901E8
:100748002F21EA6E0901EECF52F90901EDCF53F9D5
:1007580094EC2DF0090153515211D8B4B6EF03F0BF
:10076800B8EF03F027EF04F00D0E090109013C6F03
:10077800000E09013D6FD8900801080102350901F2
:100788002A6F08010801033509012B6F080100C809
:100798002CF9080101C82DF9050ED89009012C374C
:1007A8002D37E82ED1EF03F0000E09012C250901A1
:1007B8002E6F000E09012D2109012F6F09012A5101
:1007C80009012E25E96E09012B5109012F21EA6E35
:1007D8000901EECF3AF90901EDCF3BF9DAEC2EF039
:1007E800D8900801080102350901306F0801080195
:1007F80003350901316F080100C832F9080101C841
:1008080033F9050ED890090132373337E82E06EF51
:1008180004F0000E090132250901346F000E0901A8
:1008280033210901356F0901305109013425E96E79
:100838000901315109013521EA6E09013AC9EEFF72
:1008480009013BC9EDFFFF0E080108010225FF0E53
:1008580008010321800BD8A434EF04F036EF04F02C
:1008680009EF05F0050E09010901546F000E090191
:10087800556F080100C82AF9080101C82BF9050EAF
:10088800D89009012A372B37E82E44EF04F0D89086
:1008980008010801023509012C6F08010801033518
:1008A80009012D6FFE0E09012C2509012E6FFF0E7F
:1008B80009012D2109012F6F000E09012E250901BB
:1008C800306F000E09012F210901316F09012A51EA
:1008D80009013025E96E09012B5109013121EA6E20
:1008E8000901EECF52F90901EDCF53F994EC2DF03F
:1008F800090153515211D8B484EF04F086EF04F083
:1009080009EF05F0050E090109013C6F000E090108
:100918003D6F080100C82AF9080101C82BF9050E26
:10092800D89009012A372B37E82E94EF04F0D89095
:1009380008010801023509012C6F08010801033577
:1009480009012D6FFE0E09012C2509012E6FFF0EDE
:1009580009012D2109012F6F000E09012E2509011A
:10096800306F000E09012F210901316F09012A5149
:1009780009013025E96E09012B5109013121EA6E7F
:100988000901EECF3AF90901EDCF3BF9DAEC2EF087
:10099800080100C832F9080101C833F9050ED890DA
:1009A800090132373337E82ED3EF04F0D890080125
:1009B800080102350901346F0801080103350901EE
:1009C800356FFE0E090134250901366FFF0E090146
:1009D80035210901376F000E090136250901386FE5
:1009E800000E090137210901396F09013251090146
:1009F8003825E96E0901335109013921EA6E0901E7
:100A08003AC9EEFF09013BC9EDFFAEEF13F081B61D
:100A180010EF05F012EF05F0A5EF06F0050E09013D
:100A28000901546F000E0901556FD890080108019B
:100A3800023509012A6F08010801033509012B6FE6
:100A4800080100C82CF9080101C82DF9050ED89035
:100A580009012C372D37E82E2BEF05F0000E090180
:100A68002C2509012E6F000E09012D2109012F6F78
:100A780009012A5109012E25E96E09012B510901A5
:100A88002F21EA6E0901EECF52F90901EDCF53F992
:100A980094EC2DF0090153515211D8B456EF05F0DA
:100AA80058EF05F0C7EF05F0050E090109013C6F85
:100AB800000E09013D6FD8900801080102350901AF
:100AC8002A6F08010801033509012B6F080100C8C6
:100AD8002CF9080101C82DF9050ED89009012C3709
:100AE8002D37E82E71EF05F0000E09012C250901BC
:100AF8002E6F000E09012D2109012F6F09012A51BE
:100B080009012E25E96E09012B5109012F21EA6EF1
:100B18000901EECF3AF90901EDCF3BF9DAEC2EF0F5
:100B2800D8900801080102350901306F0801080151
:100B380003350901316F080100C832F9080101C8FD
:100B480033F9050ED890090132373337E82EA6EF6E
:100B580005F0000E090132250901346F000E090164
:100B680033210901356F0901305109013425E96E36
:100B78000901315109013521EA6E09013AC9EEFF2F
:100B880009013BC9EDFF010E080108010225090111
:100B98002A6F000E08010801032109012B6F0901C2
:100BA8002B51800A800F100ED8B42A5DD8B0DFEF21
:100BB80005F0E1EF05F0A5EF06F00D0E09010901BA
:100BC800546F000E0901556F080100C82AF9080181
:100BD80001C82BF9050ED89009012A372B37E82EC2
:100BE800EFEF05F0D89008010801023509012C6FD4
:100BF80008010801033509012D6F020E09012C2790
:100C0800000E2D23000E09012C2509012E6F000E60
:100C180009012D2109012F6F09012A5109012E25EA
:100C2800E96E09012B5109012F21EA6E0901EECF66
:100C380052F90901EDCF53F994EC2DF00901535104
:100C48005211D8B42AEF06F02CEF06F0A5EF06F003
:100C58000D0E090109013C6F000E09013D6F0801E5
:100C680000C82AF9080101C82BF9050ED890090116
:100C78002A372B37E82E3AEF06F0D89008010801FA
:100C8800023509012C6F08010801033509012D6F90
:100C9800020E09012C27000E2D23000E09012C2518
:100CA80009012E6F000E09012D2109012F6F09017D
:100CB8002A5109012E25E96E09012B5109012F211D
:100CC800EA6E0901EECF3AF90901EDCF3BF9DAEC0A
:100CD8002EF0080100C830F9080101C831F9050EE5
:100CE800D890090130373137E82E74EF06F0D890E4
:100CF8000801080102350901326F080108010335AE
:100D08000901336F020E09013227000E3323000E4A
:100D1800090132250901346F000E09013321090147
:100D2800356F0901305109013425E96E0901315146
:100D380009013521EA6E09013AC9EEFF09013BC9EB
:100D4800EDFF81B8AAEF06F0ACEF06F03FEF08F030
:100D5800070E09010901546F000E0901556FD8905B
:100D680008010801023509012A6F08010801033545
:100D780009012B6F080100C82CF9080101C82DF9D9
:100D8800050ED89009012C372D37E82EC5EF06F04F
:100D9800000E09012C2509012E6F000E09012D21D5
:100DA80009012F6F09012A5109012E25E96E090150
:100DB8002B5109012F21EA6E0901EECF52F90901E1
:100DC800EDCF53F994EC2DF0090153515211D8B4D9
:100DD800F0EF06F0F2EF06F0F2EF06F0070E090169
:100DE80009013C6F000E09013D6FD8900801080108
:100DF800023509012A6F08010801033509012B6F23
:100E0800080100C82CF9080101C82DF9050ED89071
:100E180009012C372D37E82E0BEF07F0000E0901DA
:100E28002C2509012E6F000E09012D2109012F6FB4
:100E380009012A5109012E25E96E09012B510901E1
:100E48002F21EA6E0901EECF3AF90901EDCF3BF9FE
:100E5800DAEC2EF0D8900801080102350901306F4C
:100E68000801080103350901316F080100C832F98A
:100E7800080101C833F9050ED89009013237333714
:100E8800E82E40EF07F0000E090132250901346F02
:100E9800000E090133210901356F0901305109019B
:100EA8003425E96E0901315109013521EA6E09013C
:100EB8003AC9EEFF09013BC9EDFF010E080108011F
:100EC800002509012A6F000E080108010121090106
:100ED8002B6F09012B51800A800F100ED8B42A5DA0
:100EE800D8B079EF07F07BEF07F03FEF08F0030E7B
:100EF80009010901546F000E0901556FD8900801C6
:100F08000801023509012A6F0801080103350901A2
:100F18002B6F080100C82CF9080101C82DF9050E2E
:100F2800D89009012C372D37E82E94EF07F0200EC2
:100F380009012C27000E2D23000E09012C2509017B
:100F48002E6F000E09012D2109012F6F09012A5169
:100F580009012E25E96E09012B5109012F21EA6E9D
:100F68000901EECF52F90901EDCF53F994EC2DF0B8
:100F7800090153515211D8B4C4EF07F0C6EF07F076
:100F88003FEF08F0030E090109013C6F000E09014B
:100F98003D6FD89008010801023509012A6F080140
:100FA8000801033509012B6F080100C82CF9080155
:100FB80001C82DF9050ED89009012C372D37E82ED8
:100FC800DFEF07F0200E09012C27000E2D23000E5D
:100FD80009012C2509012E6F000E09012D21090197
:100FE8002F6F09012A5109012E25E96E09012B519C
:100FF80009012F21EA6E0901EECF3AF90901EDCF77
:101008003BF9DAEC2EF0D890080108010235090105
:10101800306F0801080103350901316F080100C864
:1010280032F9080101C833F9050ED89009013237A1
:101038003337E82E19EF08F0200E09013227000E89
:101048003323000E090132250901346F000E09010E
:1010580033210901356F0901305109013425E96E41
:101068000901315109013521EA6E09013AC9EEFF3A
:1010780009013BC9EDFF81B444EF08F046EF08F0E1
:1010880009EF05F0030E09010901546F000E09016B
:10109800556FD89008010801023509012A6F080127
:1010A8000801033509012B6F080100C82CF9080154
:1010B80001C82DF9050ED89009012C372D37E82ED7
:1010C8005FEF08F0000E09012C2509012E6F000EB4
:1010D80009012D2109012F6F09012A5109012E2526
:1010E800E96E09012B5109012F21EA6E0901EECFA2
:1010F80052F90901EDCF53F994EC2DF00901535140
:101108005211D8B48AEF08F08CEF08F0FBEF08F022
:10111800030E090109013C6F000E09013D6FD890CB
:1011280008010801023509012A6F08010801033581
:1011380009012B6F080100C82CF9080101C82DF915
:10114800050ED89009012C372D37E82EA5EF08F0A9
:10115800000E09012C2509012E6F000E09012D2111
:1011680009012F6F09012A5109012E25E96E09018C
:101178002B5109012F21EA6E0901EECF3AF9090135
:10118800EDCF3BF9DAEC2EF0D890080108010235D2
:101198000901306F0801080103350901316F0801A1
:1011A80000C832F9080101C833F9050ED8900901C1
:1011B80032373337E82EDAEF08F0000E090132250E
:1011C8000901346F000E090133210901356F090146
:1011D800305109013425E96E0901315109013521E0
:1011E800EA6E09013AC9EEFF09013BC9EDFFFF0E9E
:1011F800080108010025FF0E08010121800BD8A471
:1012080008EF09F00AEF09F0DDEF09F0070E090110
:101218000901546F000E0901556FD89008010801A3
:10122800023509012A6F08010801033509012B6FEE
:10123800080100C82CF9080101C82DF9050ED8903D
:1012480009012C372D37E82E23EF09F0E00E0901AC
:101258002C2509012E6FFF0E09012D2109012F6F81
:10126800000E09012E250901306F000E09012F21FA
:101278000901316F09012A5109013025E96E090177
:101288002B5109013121EA6E0901EECF52F909010A
:10129800EDCF53F994EC2DF0090153515211D8B404
:1012A80058EF09F05AEF09F0DDEF09F0070E0901D0
:1012B80009013C6F000E09013D6FD8900801080133
:1012C800023509012A6F08010801033509012B6F4E
:1012D800080100C82CF9080101C82DF9050ED8909D
:1012E80009012C372D37E82E73EF09F0E00E0901BC
:1012F8002C2509012E6FFF0E09012D2109012F6FE1
:10130800000E09012E250901306F000E09012F2159
:101318000901316F09012A5109013025E96E0901D6
:101328002B5109013121EA6E0901EECF3AF9090181
:10133800EDCF3BF9DAEC2EF0D89008010801023520
:101348000901326F0801080103350901336F0801EB
:1013580000C834F9080101C835F9050ED89009010B
:1013680034373537E82EB2EF09F0E00E090134259D
:101378000901366FFF0E090135210901376F000E8B
:10138800090136250901386F000E090137210901C5
:10139800396F0901325109013825E96E09013351C4
:1013A80009013921EA6E09013AC9EEFF09013BC971
:1013B800EDFFAEEF13F081B6E4EF09F0E6EF09F0C8
:1013C80079EF0BF0070E09010901546F000E0901AE
:1013D800556FD89008010801023509012A6F0801E4
:1013E8000801033509012B6F080100C82CF9080111
:1013F80001C82DF9050ED89009012C372D37E82E94
:10140800FFEF09F0000E09012C2509012E6F000ECF
:1014180009012D2109012F6F09012A5109012E25E2
:10142800E96E09012B5109012F21EA6E0901EECF5E
:1014380052F90901EDCF53F994EC2DF009015351FC
:101448005211D8B42AEF0AF02CEF0AF09BEF0AF0F9
:10145800070E090109013C6F000E09013D6FD89084
:1014680008010801023509012A6F0801080103353E
:1014780009012B6F080100C82CF9080101C82DF9D2
:10148800050ED89009012C372D37E82E45EF0AF0C4
:10149800000E09012C2509012E6F000E09012D21CE
:1014A80009012F6F09012A5109012E25E96E090149
:1014B8002B5109012F21EA6E0901EECF3AF90901F2
:1014C800EDCF3BF9DAEC2EF0D8900801080102358F
:1014D8000901306F0801080103350901316F08015E
:1014E80000C832F9080101C833F9050ED89009017E
:1014F80032373337E82E7AEF0AF0000E0901322529
:101508000901346F000E090133210901356F090102
:10151800305109013425E96E09013151090135219C
:10152800EA6E09013AC9EEFF09013BC9EDFF010E58
:1015380008010801002509012A6F000E08010801A9
:10154800012109012B6F09012B51800A800F100E10
:10155800D8B42A5DD8B0B3EF0AF0B5EF0AF079EF46
:101568000BF0030E09010901546F000E0901556FB4
:10157800D89008010801023509012A6F08010801FD
:10158800033509012B6F080100C82CF9080101C8AF
:101598002DF9050ED89009012C372D37E82ECEEFFE
:1015A8000AF0200E09012C27000E2D23000E090138
:1015B8002C2509012E6F000E09012D2109012F6F1D
:1015C80009012A5109012E25E96E09012B5109014A
:1015D8002F21EA6E0901EECF52F90901EDCF53F937
:1015E80094EC2DF0090153515211D8B4FEEF0AF0D2
:1015F80000EF0BF079EF0BF0030E090109013C6FC6
:10160800000E09013D6FD890080108010235090153
:101618002A6F08010801033509012B6F080100C86A
:101628002CF9080101C82DF9050ED89009012C37AD
:101638002D37E82E19EF0BF0200E09012C27000E8C
:101648002D23000E09012C2509012E6F000E09011A
:101658002D2109012F6F09012A5109012E25E96E53
:1016680009012B5109012F21EA6E0901EECF3AF940
:101678000901EDCF3BF9DAEC2EF0D890080108010A
:1016880002350901306F0801080103350901316F7E
:10169800080100C832F9080101C833F9050ED890CD
:1016A800090132373337E82E53EF0BF0200E0901CA
:1016B8003227000E3323000E090132250901346F49
:1016C800000E090133210901356F09013051090163
:1016D8003425E96E0901315109013521EA6E090104
:1016E8003AC9EEFF09013BC9EDFF81B87EEF0BF067
:1016F80080EF0BF017EF0DF00D0E09010901546F83
:10170800000E0901556FD89008010801023509013A
:101718002A6F08010801033509012B6F080100C869
:101728002CF9080101C82DF9050ED89009012C37AC
:101738002D37E82E99EF0BF0000E09012C25090131
:101748002E6F000E09012D2109012F6F09012A5161
:1017580009012E25E96E09012B5109012F21EA6E95
:101768000901EECF52F90901EDCF53F994EC2DF0B0
:10177800090153515211D8B4C4EF0BF0C6EF0BF066
:1017880035EF0CF00D0E090109013C6F000E09013F
:101798003D6FD89008010801023509012A6F080138
:1017A8000801033509012B6F080100C82CF908014D
:1017B80001C82DF9050ED89009012C372D37E82ED0
:1017C800DFEF0BF0000E09012C2509012E6F000E2A
:1017D80009012D2109012F6F09012A5109012E251F
:1017E800E96E09012B5109012F21EA6E0901EECF9B
:1017F8003AF90901EDCF3BF9DAEC2EF0D89008015F
:10180800080102350901306F080108010335090193
:10181800316F080100C832F9080101C833F9050E13
:10182800D890090132373337E82E14EF0CF0000E48
:10183800090132250901346F000E0901332109011C
:10184800356F0901305109013425E96E090131511B
:1018580009013521EA6E09013AC9EEFF09013BC9C0
:10186800EDFFFF0E080108010225FF0E0801032104
:10187800800BD8A442EF0CF044EF0CF017EF0DF0FA
:10188800050E09010901546F000E0901556F080181
:1018980000C82AF9080101C82BF9050ED8900901DA
:1018A8002A372B37E82E52EF0CF0D89008010801A0
:1018B800023509012C6F08010801033509012D6F54
:1018C800FE0E09012C2509012E6FFF0E09012D219D
:1018D80009012F6F000E09012E250901306F000E36
:1018E80009012F210901316F09012A510901302508
:1018F800E96E09012B5109013121EA6E0901EECF88
:1019080052F90901EDCF53F994EC2DF00901535127
:101918005211D8B492EF0CF094EF0CF017EF0DF0D1
:10192800050E090109013C6F000E09013D6F080110
:1019380000C82AF9080101C82BF9050ED890090139
:101948002A372B37E82EA2EF0CF0D89008010801AF
:10195800023509012C6F08010801033509012D6FB3
:10196800FE0E09012C2509012E6FFF0E09012D21FC
:1019780009012F6F000E09012E250901306F000E95
:1019880009012F210901316F09012A510901302567
:10199800E96E09012B5109013121EA6E0901EECFE7
:1019A8003AF90901EDCF3BF9DAEC2EF0080100C84D
:1019B80032F9080101C833F9050ED8900901323708
:1019C8003337E82EE1EF0CF0D89008010801023512
:1019D8000901346F0801080103350901356FFE0E4E
:1019E800090134250901366FFF0E09013521090166
:1019F800376F000E090136250901386F000E0901FD
:101A080037210901396F0901325109013825E96E79
:101A18000901335109013921EA6E09013AC9EEFF7A
:101A280009013BC9EDFF81B41CEF0DF01EEF0DF06D
:101A380009EF05F0050E09010901546F000E0901AF
:101A4800556FD89008010801023509012A6F08016D
:101A58000801033509012B6F080100C82CF908019A
:101A680001C82DF9050ED89009012C372D37E82E1D
:101A780037EF0DF0000E09012C2509012E6F000E1D
:101A880009012D2109012F6F09012A5109012E256C
:101A9800E96E09012B5109012F21EA6E0901EECFE8
:101AA80052F90901EDCF53F994EC2DF00901535186
:101AB8005211D8B462EF0DF064EF0DF0D3EF0DF0D2
:101AC800050E090109013C6F000E09013D6FD89010
:101AD80008010801023509012A6F080108010335C8
:101AE80009012B6F080100C82CF9080101C82DF95C
:101AF800050ED89009012C372D37E82E7DEF0DF013
:101B0800000E09012C2509012E6F000E09012D2157
:101B180009012F6F09012A5109012E25E96E0901D2
:101B28002B5109012F21EA6E0901EECF3AF909017B
:101B3800EDCF3BF9DAEC2EF0D89008010801023518
:101B48000901306F0801080103350901316F0801E7
:101B580000C832F9080101C833F9050ED890090107
:101B680032373337E82EB2EF0DF0000E0901322577
:101B78000901346F000E090133210901356F09018C
:101B8800305109013425E96E090131510901352126
:101B9800EA6E09013AC9EEFF09013BC9EDFF010EE2
:101BA80008010801022509012A6F000E0801080131
:101BB800032109012B6F09012B51800A800F100E98
:101BC800D8B42A5DD8B0EBEF0DF0EDEF0DF0B1EF22
:101BD8000EF00D0E09010901546F000E0901556F31
:101BE800080100C82AF9080101C82BF9050ED89088
:101BF80009012A372B37E82EFBEF0DF0D8900801A2
:101C08000801023509012C6F080108010335090193
:101C18002D6F020E09012C27000E2D23000E09013D
:101C28002C2509012E6F000E09012D2109012F6FA6
:101C380009012A5109012E25E96E09012B510901D3
:101C48002F21EA6E0901EECF52F90901EDCF53F9C0
:101C580094EC2DF0090153515211D8B436EF0EF01F
:101C680038EF0EF0B1EF0EF00D0E090109013C6FCF
:101C7800000E09013D6F080100C82AF9080101C8D2
:101C88002BF9050ED89009012A372B37E82E46EF95
:101C98000EF0D89008010801023509012C6F0801DF
:101CA8000801033509012D6F020E09012C27000ECA
:101CB8002D23000E09012C2509012E6F000E0901A4
:101CC8002D2109012F6F09012A5109012E25E96EDD
:101CD80009012B5109012F21EA6E0901EECF3AF9CA
:101CE8000901EDCF3BF9DAEC2EF0080100C830F914
:101CF800080101C831F9050ED8900901303731378C
:101D0800E82E80EF0EF0D89008010801023509018D
:101D1800326F0801080103350901336F020E09010A
:101D28003227000E3323000E090132250901346FD2
:101D3800000E090133210901356F090130510901EC
:101D48003425E96E0901315109013521EA6E09018D
:101D58003AC9EEFF09013BC9EDFFAEEF13F081B6BA
:101D6800B8EF0EF0BAEF0EF051EF10F00D0E0901BA
:101D78000901546F000E0901556FD8900801080138
:101D8800023509012A6F08010801033509012B6F83
:101D9800080100C82CF9080101C82DF9050ED890D2
:101DA80009012C372D37E82ED3EF0EF0000E09016C
:101DB8002C2509012E6F000E09012D2109012F6F15
:101DC80009012A5109012E25E96E09012B51090142
:101DD8002F21EA6E0901EECF52F90901EDCF53F92F
:101DE80094EC2DF0090153515211D8B4FEEF0EF0C6
:101DF80000EF0FF06FEF0FF00D0E090109013C6FB6
:101E0800000E09013D6FD89008010801023509014B
:101E18002A6F08010801033509012B6F080100C862
:101E28002CF9080101C82DF9050ED89009012C37A5
:101E38002D37E82E19EF0FF0000E09012C250901A6
:101E48002E6F000E09012D2109012F6F09012A515A
:101E580009012E25E96E09012B5109012F21EA6E8E
:101E68000901EECF3AF90901EDCF3BF9DAEC2EF092
:101E7800D8900801080102350901306F08010801EE
:101E880003350901316F080100C832F9080101C89A
:101E980033F9050ED890090132373337E82E4EEF63
:101EA8000FF0000E090132250901346F000E0901F7
:101EB80033210901356F0901305109013425E96ED3
:101EC8000901315109013521EA6E09013AC9EEFFCC
:101ED80009013BC9EDFFFF0E080108010225FF0EAD
:101EE80008010321800BD8A47CEF0FF07EEF0FF0E0
:101EF80051EF10F0050E09010901546F000E090198
:101F0800556F080100C82AF9080101C82BF9050E08
:101F1800D89009012A372B37E82E8CEF0FF0D8908C
:101F280008010801023509012C6F08010801033571
:101F380009012D6FFE0E09012C2509012E6FFF0ED8
:101F480009012D2109012F6F000E09012E25090114
:101F5800306F000E09012F210901316F09012A5143
:101F680009013025E96E09012B5109013121EA6E79
:101F78000901EECF52F90901EDCF53F994EC2DF098
:101F8800090153515211D8B4CCEF0FF0CEEF0FF036
:101F980051EF10F0050E090109013C6F000E09010F
:101FA8003D6F080100C82AF9080101C82BF9050E80
:101FB800D89009012A372B37E82EDCEF0FF0D8909C
:101FC80008010801023509012C6F080108010335D1
:101FD80009012D6FFE0E09012C2509012E6FFF0E38
:101FE80009012D2109012F6F000E09012E25090174
:101FF800306F000E09012F210901316F09012A51A3
:1020080009013025E96E09012B5109013121EA6ED8
:102018000901EECF3AF90901EDCF3BF9DAEC2EF0E0
:10202800080100C832F9080101C833F9050ED89033
:10203800090132373337E82E1BEF10F0D89008012A
:10204800080102350901346F080108010335090147
:10205800356FFE0E090134250901366FFF0E09019F
:1020680035210901376F000E090136250901386F3E
:10207800000E090137210901396F0901325109019F
:102088003825E96E0901335109013921EA6E090140
:102098003AC9EEFF09013BC9EDFF81B856EF10F0D0
:1020A80058EF10F0EFEF11F0030E09010901546F1A
:1020B800000E0901556FD890080108010235090181
:1020C8002A6F08010801033509012B6F080100C8B0
:1020D8002CF9080101C82DF9050ED89009012C37F3
:1020E8002D37E82E71EF10F0000E09012C2509019B
:1020F8002E6F000E09012D2109012F6F09012A51A8
:1021080009012E25E96E09012B5109012F21EA6EDB
:102118000901EECF52F90901EDCF53F994EC2DF0F6
:10212800090153515211D8B49CEF10F09EEF10F0F2
:102138000DEF11F0030E090109013C6F000E0901B2
:102148003D6FD89008010801023509012A6F08017E
:102158000801033509012B6F080100C82CF9080193
:1021680001C82DF9050ED89009012C372D37E82E16
:10217800B7EF10F0000E09012C2509012E6F000E93
:1021880009012D2109012F6F09012A5109012E2565
:10219800E96E09012B5109012F21EA6E0901EECFE1
:1021A8003AF90901EDCF3BF9DAEC2EF0D8900801A5
:1021B800080102350901306F0801080103350901DA
:1021C800316F080100C832F9080101C833F9050E5A
:1021D800D890090132373337E82EECEF10F0000EB3
:1021E800090132250901346F000E09013321090163
:1021F800356F0901305109013425E96E0901315162
:1022080009013521EA6E09013AC9EEFF09013BC906
:10221800EDFFFF0E080108010025FF0E080101214E
:10222800800BD8A41AEF11F01CEF11F0EFEF11F0AA
:10223800070E09010901546F000E0901556FD89066
:1022480008010801023509012A6F08010801033550
:1022580009012B6F080100C82CF9080101C82DF9E4
:10226800050ED89009012C372D37E82E35EF11F0DF
:10227800E00E09012C2509012E6FFF0E09012D2101
:1022880009012F6F000E09012E250901306F000E7C
:1022980009012F210901316F09012A51090130254E
:1022A800E96E09012B5109013121EA6E0901EECFCE
:1022B80052F90901EDCF53F994EC2DF0090153516E
:1022C8005211D8B46AEF11F06CEF11F0EFEF11F082
:1022D800070E090109013C6F000E09013D6FD890F6
:1022E80008010801023509012A6F080108010335B0
:1022F80009012B6F080100C82CF9080101C82DF944
:10230800050ED89009012C372D37E82E85EF11F0EE
:10231800E00E09012C2509012E6FFF0E09012D2160
:1023280009012F6F000E09012E250901306F000EDB
:1023380009012F210901316F09012A5109013025AD
:10234800E96E09012B5109013121EA6E0901EECF2D
:102358003AF90901EDCF3BF9DAEC2EF0D8900801F3
:10236800080102350901326F080108010335090126
:10237800336F080100C834F9080101C835F9050EA2
:10238800D890090134373537E82EC4EF11F0E00E44
:10239800090134250901366FFF0E090135210901AC
:1023A800376F000E090136250901386F000E090143
:1023B80037210901396F0901325109013825E96EC0
:1023C8000901335109013921EA6E09013AC9EEFFC1
:1023D80009013BC9EDFF81B4F4EF11F0F6EF11F0FC
:1023E80009EF05F0070E09010901546F000E0901F4
:1023F800556FD89008010801023509012A6F0801B4
:102408000801033509012B6F080100C82CF90801E0
:1024180001C82DF9050ED89009012C372D37E82E63
:102428000FEF12F0000E09012C2509012E6F000E86
:1024380009012D2109012F6F09012A5109012E25B2
:10244800E96E09012B5109012F21EA6E0901EECF2E
:1024580052F90901EDCF53F994EC2DF009015351CC
:102468005211D8B43AEF12F03CEF12F03CEF12F0F0
:10247800070E090109013C6F000E09013D6FD89054
:1024880008010801023509012A6F0801080103350E
:1024980009012B6F080100C82CF9080101C82DF9A2
:1024A800050ED89009012C372D37E82E55EF12F07C
:1024B800000E09012C2509012E6F000E09012D219E
:1024C80009012F6F09012A5109012E25E96E090119
:1024D8002B5109012F21EA6E0901EECF3AF90901C2
:1024E800EDCF3BF9DAEC2EF0D8900801080102355F
:1024F8000901306F0801080103350901316F08012E
:1025080000C832F9080101C833F9050ED89009014D
:1025180032373337E82E8AEF12F0000E09013225E0
:102528000901346F000E090133210901356F0901D2
:10253800305109013425E96E09013151090135216C
:10254800EA6E09013AC9EEFF09013BC9EDFF010E28
:1025580008010801002509012A6F000E0801080179
:10256800012109012B6F09012B51800A800F100EE0
:10257800D8B42A5DD8B0C3EF12F0C5EF12F089EFD6
:1025880013F0030E09010901546F000E0901556F7C
:10259800D89008010801023509012A6F08010801CD
:1025A800033509012B6F080100C82CF9080101C87F
:1025B8002DF9050ED89009012C372D37E82EDEEFBE
:1025C80012F0200E09012C27000E2D23000E090100
:1025D8002C2509012E6F000E09012D2109012F6FED
:1025E80009012A5109012E25E96E09012B5109011A
:1025F8002F21EA6E0901EECF52F90901EDCF53F907
:1026080094EC2DF0090153515211D8B40EEF13F088
:1026180010EF13F089EF13F0030E090109013C6F65
:10262800000E09013D6FD890080108010235090123
:102638002A6F08010801033509012B6F080100C83A
:102648002CF9080101C82DF9050ED89009012C377D
:102658002D37E82E29EF13F0200E09012C27000E44
:102668002D23000E09012C2509012E6F000E0901EA
:102678002D2109012F6F09012A5109012E25E96E23
:1026880009012B5109012F21EA6E0901EECF3AF910
:102698000901EDCF3BF9DAEC2EF0D89008010801DA
:1026A80002350901306F0801080103350901316F4E
:1026B800080100C832F9080101C833F9050ED8909D
:1026C800090132373337E82E63EF13F0200E090182
:1026D8003227000E3323000E090132250901346F19
:1026E800000E090133210901356F09013051090133
:1026F8003425E96E0901315109013521EA6E0901D4
:102708003AC9EEFF09013BC9EDFFAEEF13F008012E
:1027180006C82AF9080107C82BF90901A8EF13F020
:1027280009012A51030A02E138EF00F0060A02E122
:102738000BEF05F0020A02E1DFEF09F00A0A02E1F5
:10274800B3EF0EF0AEEF13F009012B51000AE8E0E9
:10275800AEEF13F01200BFEF15F0000E08010801EC
:10276800026F000E0801036F000E08010801006FD8
:10277800000E0801016F070E090109012A6F000EFA
:1027880009012B6F30EC26F0030E090109013C6F9B
:10279800000E09013D6FD8900801080102350901B2
:1027A8001E6F08010801033509011F6F080100C8E1
:1027B80020F9080101C821F9050ED8900901203730
:1027C8002137E82EE1EF13F0000E09012025090159
:1027D800226F000E090121210901236F09011E51F1
:1027E80009012225E96E09011F5109012321EA6E19
:1027F8000901EECF3AF90901EDCF3BF9DAEC2EF0F9
:10280800D8900801080102350901246F0801080160
:1028180003350901256F080100C826F9080101C818
:1028280027F9050ED890090126372737E82E16EF25
:1028380014F0000E090126250901286F000E090170
:1028480027210901296F0901245109012825E96E69
:102858000901255109012921EA6E09013AC9EEFF4A
:1028680009013BC9EDFFDEEF15F00F0E0801080165
:10287800026F000E0801036F000E08010801006FC7
:10288800000E0801016F070E090109012A6F000EE9
:1028980009012B6F30EC26F0030E090109013C6F8A
:1028A800000E09013D6FD8900801080102350901A1
:1028B8001E6F08010801033509011F6F080100C8D0
:1028C80020F9080101C821F9050ED890090120371F
:1028D8002137E82E69EF14F0000E090120250901BF
:1028E800226F000E090121210901236F09011E51E0
:1028F80009012225E96E09011F5109012321EA6E08
:102908000901EECF3AF90901EDCF3BF9DAEC2EF0E7
:10291800D8900801080102350901246F080108014F
:1029280003350901256F080100C826F9080101C807
:1029380027F9050ED890090126372737E82E9EEF8C
:1029480014F0000E090126250901286F000E09015F
:1029580027210901296F0901245109012825E96E58
:102968000901255109012921EA6E09013AC9EEFF39
:1029780009013BC9EDFFDEEF15F0000E0801080163
:10298800026F000E0801036F0F0E08010801006FA7
:10299800000E0801016F070E090109013C6F000EC6
:1029A80009013D6FD89008010801023509011E6F21
:1029B80008010801033509011F6F080100C820F943
:1029C800080101C821F9050ED890090120372137DF
:1029D800E82EE8EF14F0000E090120250901226F06
:1029E800000E090121210901236F09011E51090166
:1029F8002225E96E09011F5109012321EA6E090107
:102A0800EECF3AF90901EDCF3BF9DAEC2EF0D89088
:102A18000801080102350901246F0801080103357E
:102A28000901256F080100C826F9080101C827F91E
:102A3800050ED890090126372737E82E1DEF15F027
:102A4800000E090126250901286F000E090127211A
:102A58000901296F0901245109012825E96E090195
:102A6800255109012921EA6E09013AC9EEFF090138
:102A78003BC9EDFFDEEF15F00F0E08010801026FEC
:102A8800000E0801036F0F0E08010801006F000E09
:102A98000801016F070E090109013C6F000E0901C9
:102AA8003D6FD89008010801023509011E6F080121
:102AB8000801033509011F6F080100C820F9080142
:102AC80001C821F9050ED890090120372137E82ED1
:102AD80067EF15F0000E090120250901226F000E8D
:102AE800090121210901236F09011E51090122252C
:102AF800E96E09011F5109012321EA6E0901EECF90
:102B08003AF90901EDCF3BF9DAEC2EF0D89008013B
:102B1800080102350901246F08010801033509017C
:102B2800256F080100C826F9080101C827F9050E14
:102B3800D890090126372737E82E9CEF15F0000EAC
:102B4800090126250901286F000E0901272109011D
:102B5800296F0901245109012825E96E0901255128
:102B680009012921EA6E09013AC9EEFF09013BC9A9
:102B7800EDFFDEEF15F0080117C81EF9080118C8A7
:102B88001FF90901D8EF15F009011E51010A01E1E9
:102B9800E4D5030A01E169D6010A01E1EED6070A84
:102BA80001E16AD7DEEF15F009011F51000AECE0D8
:102BB800DEEF15F0080108011951020A1A11D8A40C
:102BC800E8EF15F0EAEF15F00AEF18F0B4EC2FF083
:102BD800D89008010801023509011E6F0801080193
:102BE800033509011F6F080100C820F9080101C851
:102BF80021F9050ED890090120372137E82EFEEF7C
:102C080015F0000E090120250901226F020E0901A5
:102C180021210901236F09011E5109012225E96EAD
:102C280009011F5109012321EA6E0801EECF08F8B6
:102C38000801EDCF09F80801080109510811D8A4C5
:102C480028EF16F02AEF16F02CEF16F006EF18F022
:102C580036EC00F002C82CF903C82DF900C82AF98F
:102C680001C82BF902EC1BF00AC80CF90BC80DF9C6
:102C7800D89008010801023509011E6F08010801F2
:102C8800033509011F6F080100C820F9080101C8B0
:102C980021F9050ED890090120372137E82E4EEF8B
:102CA80016F0000E090120250901226F020E090104
:102CB80021210901236F09011E5109012225E96E0D
:102CC80009011F5109012321EA6E0801EECF08F816
:102CD8000801EDCF09F8FF0E0801080102250901D6
:102CE8000901126FFF0E0801080103210901136F82
:102CF8000901090113AF83EF16F085EF16F087EF8E
:102D080016F0B9EF16F0080108010051070A011181
:102D1800D8A491EF16F093EF16F0A1EF16F0090181
:102D280009011251070A1311D8A49DEF16F09FEF5D
:102D380016F0A1EF16F0ABEF16F012C92CF913C973
:102D48002DF900C82AF901C82BF902EC1BF009017A
:102D580009011207D8A013070901090113AFB7EF3A
:102D680016F0B9EF16F087EF16F0FF0E080108010C
:102D7800002509010901146FFF0E0801080101214E
:102D88000901156F0901090115AFCDEF16F0CFEF55
:102D980016F0D1EF16F023EF17F00F0E0901090115
:102DA8001A6F000E09011B6F090109011BAFDFEF44
:102DB80016F0E1EF16F0E3EF16F015EF17F0090142
:102DC80009011451070A1511D8A4EDEF16F0EFEF19
:102DD80016F0FDEF16F0090109011A51070A1B1137
:102DE800D8A4F9EF16F0FBEF16F0FDEF16F007EF99
:102DF80017F01AC92CF91BC92DF914C92AF915C9D4
:102E08002BF902EC1BF0090109011A07D8A01B07CE
:102E1800090109011BAF13EF17F015EF17F0E3EFE6
:102E280016F0090109011407D8A0150709010901BD
:102E380015AF21EF17F023EF17F0D1EF16F0010EC1
:102E480008010801022509010901166F000E080191
:102E5800080103210901176F090109011751800AA7
:102E6800800F100ED8B4165DD8A03DEF17F03FEFD5
:102E780017F041EF17F078EF17F00801080100513B
:102E8800070A0111D8A44BEF17F04DEF17F05BEFCD
:102E980017F0090109011651070A1711D8A457EFAD
:102EA80017F059EF17F05BEF17F065EF17F016C939
:102EB8002CF917C92DF900C82AF901C82BF902EC19
:102EC8001BF009010901164B172B090109011751BC
:102ED800800A800F100ED8B4165DD8A076EF17F0D0
:102EE80078EF17F041EF17F0010E080108010025EF
:102EF80009010901186F000E0801080101210901E3
:102F0800196F090109011951800A800F100ED8B4F0
:102F1800185DD8A092EF17F094EF17F096EF17F01E
:102F2800F8EF17F0000E090109011C6F000E0901E6
:102F38001D6F090109011D51800A800F100ED8B4B8
:102F48001C5DD8A0AAEF17F0ACEF17F0AEEF17F0A2
:102F5800E5EF17F0090109011851070A1911D8A45A
:102F6800B8EF17F0BAEF17F0C8EF17F00901090129
:102F78001C51070A1D11D8A4C4EF17F0C6EF17F0AB
:102F8800C8EF17F0D2EF17F01CC92CF91DC92DF99D
:102F980018C92AF919C92BF902EC1BF00901090112
:102FA8001C4B1D2B090109011D51800A800F100EB1
:102FB800D8B41C5DD8A0E3EF17F0E5EF17F0AEEF3B
:102FC80017F009010901184B192B090109011951B9
:102FD800800A800F100ED8B4185DD8A0F6EF17F04D
:102FE800F8EF17F096EF17F066EC30F00CC92AF9F5
:102FF8000DC92BF930EC26F071EC30F03CEC24F0E4
:10300800EAEF15F041EC2CF001EF1BF00801080184
:1030180019051A11D8A413EF18F015EF18F001EFDD
:103028001BF0D89008010801023509011E6F08013C
:103038000801033509011F6F080100C820F90801BC
:1030480001C821F9050ED890090120372137E82E4B
:1030580027EF18F0000E090120250901226F020E42
:10306800090121210901236F09011E5109012225A6
:10307800E96E09011F5109012321EA6E0801EECF0B
:1030880008F80801EDCF09F808C810F909C811F9BE
:103098000801080109510811D8A455EF18F057EF95
:1030A80018F059EF18F0FFEF1AF0B4EC2FF0010EFA
:1030B80008010801022509011E6F000E0801080118
:1030C800032109011F6F09011F51800A800F100E8B
:1030D800D8B41E5DD8B073EF18F075EF18F001EF93
:1030E80019F0080100C81EF9080101C81FF9050EEA
:1030F800D89009011E371F37E82E7CEF18F0D890BA
:103108000801080102350901206F0801080103358B
:103118000901216F020E09012027000E2123000E4C
:10312800090120250901226F020E09012121090147
:10313800236F09011E5109012225E96E09011F515A
:1031480009012321EA6EEECF24F9EDCF25F9090113
:103158002551800A0901266F090109011051090149
:10316800245D090109011151800A09012659D8B0C5
:10317800C0EF18F0C2EF18F001EF19F0080100C80D
:103188001EF9080101C81FF9050ED89009011E375C
:103198001F37E82EC9EF18F0D8900801080102354A
:1031A8000901206F0801080103350901216F020E8A
:1031B80009012027000E2123000E090120250901FD
:1031C800226F020E090121210901236F09011E51F5
:1031D80009012225E96E09011F5109012321EA6E1F
:1031E8000901EECF10F90901EDCF11F9050E09011A
:1031F80009010E6F000E09010F6F010E0801080189
:10320800002509011E6F000E0801080101210901AE
:103218001F6F09011F51800A800F100ED8B41E5D60
:10322800D8B019EF19F01BEF19F0A7EF19F0D890E3
:1032380008010801023509011E6F0801080103355C
:1032480009011F6F080100C820F9080101C821F908
:10325800050ED890090120372137E82E2DEF19F0F7
:10326800200E09012027000E2123000E0901202528
:103278000901226F020E090121210901236F0901A9
:103288001E5109012225E96E09011F510901232157
:10329800EA6EEECF24F9EDCF25F909012551800A10
:1032A8000901266F0901090110510901245D09016D
:1032B80009011151800A09012659D8B066EF19F0A1
:1032C80068EF19F0A7EF19F0D89008010801023546
:1032D80009011E6F08010801033509011F6F080164
:1032E80000C820F9080101C821F9050ED890090184
:1032F80020372137E82E7AEF19F0200E0901202710
:10330800000E2123000E090120250901226F020E5B
:10331800090121210901236F09011E5109012225F3
:10332800E96E09011F5109012321EA6E0901EECF57
:1033380010F90901EDCF11F9070E090109010E6F06
:10334800000E09010F6FFF0E080108010225FF0E8C
:1033580008010321800BD8A4B4EF19F0B6EF19F0D7
:103368004CEF1AF0080100C81EF9080101C81FF93E
:10337800050ED89009011E371F37E82EBDEF19F04A
:10338800D8900801080102350901206F08010801D9
:1033980003350901216FFE0E090120250901226F5D
:1033A800FF0E090121210901236F000E09012225C1
:1033B8000901246F020E090123210901256F090162
:1033C8001E5109012425E96E09011F510901252112
:1033D800EA6EEECF26F9EDCF27F909012751800AC9
:1033E8000901286F0901090110510901265D090128
:1033F80009011151800A09012859D8B006EF1AF0BD
:1034080008EF1AF04CEF1AF0080100C81EF908017D
:1034180001C81FF9050ED89009011E371F37E82E7D
:103428000FEF1AF0D8900801080102350901206F42
:103438000801080103350901216FFE0E0901202545
:103448000901226FFF0E090121210901236F000ED6
:10345800090122250901246F020E0901232109010E
:10346800256F09011E5109012425E96E09011F5123
:1034780009012521EA6E0901EECF10F90901EDCF06
:1034880011F90D0E090109010E6F000E09010F6FE8
:10349800FF0E080108010025FF0E08010121800B1D
:1034A800D8A459EF1AF05BEF1AF0F1EF1AF0D890A0
:1034B80008010801023509011E6F080108010335DA
:1034C80009011F6F080100C820F9080101C821F986
:1034D800050ED890090120372137E82E6DEF1AF034
:1034E800E00E090120250901226FFF0E09012121A3
:1034F8000901236F000E090122250901246F020E1C
:10350800090123210901256F09011E5109012425FB
:10351800E96E09011F5109012521EA6EEECF26F94E
:10352800EDCF27F909012751800A0901286F090100
:10353800090110510901265D090109011151800A8B
:1035480009012859D8B0ABEF1AF0ADEF1AF0F1EF36
:103558001AF0D89008010801023509011E6F080108
:103568000801033509011F6F080100C820F9080187
:1035780001C821F9050ED890090120372137E82E16
:10358800BFEF1AF0E00E090120250901226FFF0E96
:10359800090121210901236F000E090122250901D2
:1035A800246F020E090123210901256F09011E510B
:1035B80009012425E96E09011F5109012521EA6E37
:1035C8000901EECF10F90901EDCF11F9030E090138
:1035D80009010E6F000E09010F6F66EC30F00EC97D
:1035E8002AF90FC92BF930EC26F071EC30F03CECDD
:1035F80024F015EF18F041EC2CF0120008EE0DF055
:1036080019EE3CF0080EEECFE6FFE82E07EF1BF0B0
:10361800000E090109013A6F000E09013B6F000E07
:1036280009010901306F000E0901316F010E09010E
:1036380009012C2509014A6F000E090109012D21F4
:1036480009014B6F09014B51800A800F100ED8B445
:103658004A5DD8B032EF1BF034EF1BF070EF1BF06F
:1036680009012AC94AF909012BC94BF9050ED89055
:1036780009014A374B37E82E3BEF1BF0D890090178
:1036880009012C3509014C6F090109012D35090182
:103698004D6F020E09014C27000E4D23000E090143
:1036A8004C2509014E6F020E09014D2109014F6F8A
:1036B80009014A5109014E25E96E09014B510901D9
:1036C8004F21EA6E0901EECF3CF90901EDCF3DF932
:1036D8003CC934F93DC935F9FF0E090109012C250A
:1036E800FF0E09012D21800BD8A47DEF1BF07FEF81
:1036F8001BF0C0EF1BF009012AC94AF909012BC9BF
:103708004BF9050ED89009014A374B37E82E86EF5A
:103718001BF0D890090109012C3509014C6F0901EA
:1037280009012D3509014D6FFE0E09014C250901CE
:103738004E6FFF0E09014D2109014F6F000E09015F
:103748004E250901506F020E09014F210901516FE1
:1037580009014A5109015025E96E09014B51090136
:103768005121EA6E0901EECF3EF90901EDCF3FF98B
:103778003EC932F93FC933F9FF0E090109012A256B
:10378800FF0E09012B21800BD8A4CDEF1BF0CFEF42
:103798001BF010EF1CF0D890090109012C35090124
:1037A8004A6F090109012D3509014B6F09012AC921
:1037B8004CF909012BC94DF9050ED89009014C3770
:1037C8004D37E82EE1EF1BF0E00E09014C25090109
:1037D8004E6FFF0E09014D2109014F6F000E0901BF
:1037E8004E250901506F020E09014F210901516F41
:1037F80009014A5109015025E96E09014B51090196
:103808005121EA6E0901EECF40F90901EDCF41F9E6
:1038180040C936F941C937F9010E090109012A25BC
:1038280009014A6F000E090109012B2109014B6F9B
:1038380009014B51800A800F100ED8B44A5DD8B0E8
:1038480028EF1CF02AEF1CF066EF1CF0D890090155
:1038580009012C3509014A6F090109012D350901B2
:103868004B6F09012AC94CF909012BC94DF9050EFD
:10387800D89009014C374D37E82E3CEF1CF0200E4C
:1038880009014C27000E4D23000E09014C250901A2
:103898004E6F020E09014D2109014F6F09014A516E
:1038A80009014E25E96E09014B5109014F21EA6EC4
:1038B8000901EECF42F90901EDCF43F942C92EF9CA
:1038C80043C92FF9000E09010901446F000E0901CF
:1038D800456F090109014551800A800F030ED8B4CC
:1038E800445DD8A07AEF1CF07CEF1CF07EEF1CF052
:1038F8003FEF1DF0010E09010901442509010901E5
:10390800486F000E0901090145210901496F0901A4
:1039180009014951800A800F040ED8B4485DD8A027
:1039280098EF1CF09AEF1CF09CEF1CF02CEF1DF0A8
:103938000901D8900901443509014A6F09013C0E73
:1039480009014A25E96EEA6A0901090EEA22090114
:10395800D8900901483509014B6F09013C0E09014E
:103968004B25E16EE26A0901090EE222E652EE52A7
:10397800E550800A09014C6FED50800A4C5D02E168
:10398800EF50E75CD8B0CBEF1CF0CDEF1CF019EF8F
:103998001DF00901D8900901443509014A6F090150
:1039A8003C0E09014A25E96EEA6A0901090EEA2274
:1039B8000901EECF30F90901EDCF31F90901D890AD
:1039C8000901483509014A6F09013C0E09014A25D8
:1039D800E96EEA6A0901090EEA220901D89009018B
:1039E800443509014B6F09013C0E09014B25E16E75
:1039F800E26A0901090EE222EECFE6FFEDCFE5FF0C
:103A08000901D8900901483509014A6F09013C0E9E
:103A180009014A25E96EEA6A0901090EEA22090143
:103A280030C9EEFF090131C9EDFF09010901484B11
:103A3800492B090109014951800A800F040ED8B4A5
:103A4800485DD8A02AEF1DF02CEF1DF09CEF1CF06C
:103A580009010901444B452B090109014551800A17
:103A6800800F030ED8B4445DD8A03DEF1DF03FEFA2
:103A78001DF07EEF1CF0000E09010901466F000ED3
:103A88000901476F090109014751800A800F040E97
:103A9800D8B4465DD8A053EF1DF055EF1DF057EF91
:103AA8001DF05DEF1FF0090109013B513A11D8A43F
:103AB80060EF1DF062EF1DF04AEF1FF00901D8908A
:103AC8000901463509014A6F09013C0E09014A25D9
:103AD800E96EEA6A0901090EEA220901EE520901B2
:103AE8003751ED18090136C9E8FFD8B4EF18D8A442
:103AF80080EF1DF082EF1DF0DCEF1DF0030E0901D1
:103B08000901546F000E0901556FD8900901090188
:103B18002C3509014A6F090109012D3509014B6F3F
:103B280009012AC94CF909012BC94DF9050ED8908C
:103B380009014C374D37E82E9BEF1DF0000E0901A7
:103B48004C2509014E6F000E09014D2109014F6FE7
:103B580009014A5109014E25E96E09014B51090134
:103B68004F21EA6E0901EECF52F90901EDCF53F961
:103B780094EC2DF0090153515211D8B4C6EF1DF041
:103B8800C8EF1DF0DCEF1DF036C938F937C939F92F
:103B9800030E080108010A6F000E08010B6F010EE1
:103BA800090109013A6F000E09013B6F4AEF1FF046
:103BB8000901D8900901463509014A6F09013C0EEF
:103BC80009014A25E96EEA6A0901090EEA22090192
:103BD800EE5209013551ED18090134C9E8FFD8B48E
:103BE800EF18D8A4FAEF1DF0FCEF1DF056EF1EF009
:103BF800050E09010901546F000E0901556FD8908F
:103C0800090109012C3509014A6F090109012D35FE
:103C180009014B6F09012AC94CF909012BC94DF952
:103C2800050ED89009014C374D37E82E15EF1EF0D8
:103C3800000E09014C2509014E6F000E09014D21A6
:103C480009014F6F09014A5109014E25E96E090121
:103C58004B5109014F21EA6E0901EECF52F90901D2
:103C6800EDCF53F994EC2DF0090153515211D8B40A
:103C780040EF1EF042EF1EF056EF1EF034C938F93F
:103C880035C939F9050E080108010A6F000E080147
:103C98000B6F010E090109013A6F000E09013B6F14
:103CA8004AEF1FF00901D8900901463509014A6F0A
:103CB80009013C0E09014A25E96EEA6A0901090E63
:103CC800EA220901EE5209012F51ED1809012EC906
:103CD800E8FFD8B4EF18D8A474EF1EF076EF1EF002
:103CE800D0EF1EF0070E09010901546F000E0901FB
:103CF800556FD890090109012C3509014A6F09014E
:103D080009012D3509014B6F09012AC94CF909012F
:103D18002BC94DF9050ED89009014C374D37E82EBF
:103D28008FEF1EF0000E09014C2509014E6F000EA1
:103D380009014D2109014F6F09014A5109014E2519
:103D4800E96E09014B5109014F21EA6E0901EECFD5
:103D580052F90901EDCF53F994EC2DF009015351B3
:103D68005211D8B4BAEF1EF0BCEF1EF0D0EF1EF01F
:103D78002EC938F92FC939F9070E080108010A6F49
:103D8800000E08010B6F010E090109013A6F000EC0
:103D980009013B6F4AEF1FF00901D8900901463528
:103DA80009014A6F09013C0E09014A25E96EEA6AD0
:103DB8000901090EEA220901EE5209013351ED18F1
:103DC800090132C9E8FFD8B4EF18D8A4EEEF1EF005
:103DD800F0EF1EF04AEF1FF00D0E09010901546FB4
:103DE800000E0901556FD890090109012C35090108
:103DF8004A6F090109012D3509014B6F09012AC9CB
:103E08004CF909012BC94DF9050ED89009014C3719
:103E18004D37E82E09EF1FF0000E09014C25090166
:103E28004E6F000E09014D2109014F6F09014A51DA
:103E380009014E25E96E09014B5109014F21EA6E2E
:103E48000901EECF52F90901EDCF53F994EC2DF0A9
:103E5800090153515211D8B434EF1FF036EF1FF057
:103E68004AEF1FF032C938F933C939F90D0E080184
:103E780008010A6F000E08010B6F010E0901090104
:103E88003A6F000E09013B6F4AEF1FF00901090163
:103E9800464B472B090109014751800A800F040E40
:103EA800D8B4465DD8A05BEF1FF05DEF1FF057EF69
:103EB8001DF0010E09010901382509014A6F000E9C
:103EC80009010901392109014B6FD890090109013C
:103ED8002C3509014C6F090109012D3509014D6F78
:103EE80009012AC94EF909012BC94FF9050ED890C5
:103EF80009014E374F37E82E7BEF1FF0000E0901FE
:103F08004E250901506F020E09014F210901516F19
:103F180009014C5109015025E96E09014D5109016A
:103F28005121EA6E4AC9EEFF4BC9EDFF1200F19E1E
:103F38009368100E956EE00E8C6E19C830F91AC889
:103F480031F95BEC30F0000E09010901006F000E39
:103F58000901016F000E81BA010E080108011B6FEB
:103F680008011C6B000E09010901046F000E09010C
:103F7800056F090109010551800A800F020ED8B4A6
:103F8800045DD8A0CAEF1FF0CCEF1FF0CEEF1FF0F2
:103F98001CEF20F009010A6FE80E09010901356FCD
:103FA80009010A51D9EC2FF083B8DDEF1FF0DFEFDC
:103FB8001FF0E5EF1FF009010901044B052BECEF99
:103FC8001FF0000E09010901046F000E0901056FB9
:103FD800000E81BA010E09010A6F0B6B0801080176
:103FE8001C5109010B1905E1080108011B510901C0
:103FF8000A19D8B402EF20F004EF20F00DEF20F0FA
:10400800010E09010901006F000E0901016F1CEF83
:1040180020F0090109010551800A800F020ED8B469
:10402800045DD8A01AEF20F01CEF20F0CEEF1FF0AF
:104038000901090101510011D8A425EF20F027EF4B
:1040480020F02BEF20F008010801194B1A2B08016A
:1040580008011A51800A800F040ED8B4195DD8A03F
:1040680038EF20F03AEF20F041EF20F0010E080180
:104078000801196F000E08011A6F19C830F91AC81B
:1040880031F95BEC30F0080108011951030A1A11E3
:10409800D8A451EF20F053EF20F0A1EF20F0000E4C
:1040A80009010901066F000E0901076F09010901DD
:1040B8000751800A800F0A0ED8B4065DD8A067EFB2
:1040C80020F069EF20F06BEF20F0A1EF20F0000E58
:1040D80009010901306F000E0901316F5BEC30F006
:1040E80009010A6FE80E09010901356F09010A5132
:1040F800D9EC2FF019C830F91AC831F95BEC30F057
:1041080009010A6F100E09010901356F09010A51E9
:10411800D9EC2FF009010901064B072B0901090108
:104128000751800A800F0A0ED8B4065DD8A09FEF09
:1041380020F0A1EF20F06BEF20F0000E81BA010E05
:1041480009010A6F0B6B080108011C5109010B19C1
:1041580005E1080108011B5109010A19D8B4B7EF94
:1041680020F0B9EF20F0BBEF20F0BDEF20F0B6EF64
:104178001FF0000E09010901006F000E0901016F0F
:10418800ECEF21F040EC22F007EF22F040EC22F0B7
:1041980017C830F918C831F95BEC30F0000E81BA55
:1041A800010E080108011B6F08011C6B000E0901B4
:1041B8000901086F000E0901096F09010901095178
:1041C800800A800F020ED8B4085DD8A0EEEF20F068
:1041D800F0EF20F0F2EF20F040EF21F009010A6F34
:1041E800E80E09010901356F09010A51D9EC2FF0D0
:1041F80083B801EF21F003EF21F009EF21F0090165
:104208000901084B092B10EF21F0000E09010901E3
:10421800086F000E0901096F000E81BA010E09012D
:104228000A6F0B6B080108011C5109010B1905E104
:10423800080108011B5109010A19D8B426EF21F019
:1042480028EF21F031EF21F0010E09010901006F7B
:10425800000E0901016F40EF21F009010901095120
:10426800800A800F020ED8B4085DD8A03EEF21F076
:1042780040EF21F0F2EF20F009010901015100118E
:10428800D8A449EF21F04BEF21F04FEF21F00801BE
:104298000801174B182B080108011851800A800FD4
:1042A800050ED8B4175DD8A05CEF21F05EEF21F0C1
:1042B80065EF21F0010E08010801176F000E0801D3
:1042C800186F17C830F918C831F95BEC30F0000ED8
:1042D80081BA010E09010A6F0B6B080108011C5114
:1042E80009010B1905E1080108011B5109010A1907
:1042F800D8B481EF21F083EF21F085EF21F087EF2B
:1043080021F0DAEF20F007EF22F0010E0901090190
:104318001C6F000E09011D6F010E090109011A6FBA
:10432800000E09011B6F8BEC29F0000E0901090131
:10433800026F000E0901036F090109010351800A88
:104348007D0FE80ED8B4025DD8A0ADEF21F0AFEF35
:1043580021F0B1EF21F087EF21F0070E09010901E3
:10436800306F000E0901316F5BEC30F009010A6F04
:10437800E80E09010901356F09010A51D9EC2FF03E
:10438800000E09010901306F000E0901316F5BEC65
:1043980030F009010A6FE80E09010901356F0901BA
:1043A8000A51D9EC2FF009010901024B032B09012D
:1043B80009010351800A7D0FE80ED8B4025DD8A028
:1043C800E8EF21F0EAEF21F0B1EF21F007EF22F05A
:1043D800080119C80AF908011AC80BF9090101EFFF
:1043E80022F009010A51010A01E1CCD6030A01E1D0
:1043F800CDD6010A8AE007EF22F009010B51000A25
:10440800F0E007EF22F071EC30F0030E080108012C
:10441800066F000E0801076F66EC30F009010A6F9D
:10442800F40E09010901356F09010A51D9EC2FF081
:1044380009010A6FF40E09010901356F09010A51D2
:10444800D9EC2FF009010A6FF40E09010901356F43
:1044580009010A51D9EC2FF009010A6FF40E09017C
:104468000901356F09010A51D9EC2FF071EC30F0D0
:10447800AFEC13F00CEF00F00801080119051A1150
:10448800D8A449EF22F04BEF22F04FEF22F020ECB6
:1044980028F03BEF24F0080108011951020A1A110B
:1044A800D8A459EF22F05BEF22F03BEF24F0000E86
:1044B800090109011C6F000E09011D6F010E090198
:1044C80009011A6F000E09011B6F8BEC29F0000E11
:1044D800090109010C6F000E09010D6F090109019D
:1044E8000D51800A800F100ED8B40C5DD8A07FEF54
:1044F80022F081EF22F083EF22F03BEF24F0000E50
:10450800090109010E6F000E09010F6F0901090168
:104518000F51800A800F100ED8B40E5DD8A097EF07
:1045280022F099EF22F09BEF22F028EF24F0090106
:1045380009010D51800A800F080ED8B40C5DD8B05F
:10454800A8EF22F0AAEF22F047EF23F009010901B2
:104558000F51800A800F080ED8B40E5DD8B0B7EF9F
:1045680022F0B9EF22F004EF23F00E0E0901106FCC
:10457800116B090109010E510901105F09010901B7
:104588000F510901115B090109010C510901105F63
:10459800090109010D510901115BD89009010901AF
:1045A8000E350901126F090109010F350901136F51
:1045B80009010CC914F909010DC915F9050ED8909E
:1045C800090114371537E82EE3EF22F0000E090130
:1045D80014250901166F020E090115210901176F2B
:1045E8000901125109011625E96E09011351090142
:1045F8001721EA6E10C9EEFF11C9EDFF45EF23F050
:1046080009010EC910F909010FC911F909010901B8
:104618000C510901105F090109010D510901115BD4
:10462800D890090109010E350901126F0901090124
:104638000F350901136F09010CC914F909010DC9D6
:1046480015F9050ED890090114371537E82E26EF0D
:1046580023F0000E090114250901166F020E090145
:1046680015210901176F0901125109011625E96E73
:104678000901135109011721EA6E10C9EEFF11C98A
:10468800EDFFE4EF23F0090109010F51800A800FC3
:10469800080ED8B40E5DD8B054EF23F056EF23F0CF
:1046A80099EF23F009010CC910F909010DC911F995
:1046B800090109010E510901105F090109010F5192
:1046C8000901115BD890090109010E350901126F22
:1046D800090109010F350901136F09010CC914F902
:1046E80009010DC915F9050ED890090114371537B8
:1046F800E82E78EF23F0000E090114250901166F42
:10470800020E090115210901176F0901125109014A
:104718001625E96E0901135109011721EA6E10C91E
:10472800EEFF11C9EDFFE4EF23F009010CC910F900
:1047380009010DC911F9090109010E5109011027D3
:10474800090109010F5109011123F20E0901102570
:104758000901126FFF0E090111210901136FD89089
:10476800090109010E350901146F090109010F3505
:104778000901156F09010CC916F909010DC917F9C5
:10478800050ED890090116371737E82EC5EF23F024
:10479800000E090116250901186F020E09011721DB
:1047A8000901196F0901145109011825E96E090158
:1047B800155109011921EA6E12C9EEFF13C9EDFF5F
:1047C800D890090109010E350901106F0901090185
:1047D8000F350901116F09010CC912F909010DC939
:1047E80013F9050ED890090112371337E82EF6EFA2
:1047F80023F0000E090112250901146F000E0901AA
:1048080013210901156F0901105109011425E96ED9
:104818000901115109011521EA6E010EEE6E000E13
:10482800ED6E090109010E4B0F2B090109010F510A
:10483800800A800F100ED8B40E5DD8A026EF24F0A1
:1048480028EF24F09BEF22F0090109010C4B0D2BF6
:10485800090109010D51800A800F100ED8B40C5DB2
:10486800D8A039EF24F03BEF24F083EF22F01200B8
:1048780008010801154B162BD890080108011535B9
:104888000901326F0801080116350901336F000E5E
:1048980009013225E96E040E09013321EA6E010E81
:1048A800EE6E000EED6E0901326F640E090109010A
:1048B800356F09013251D9EC2FF00A0E8C6E000EBB
:1048C80009010901306F000E0901316F0901090161
:1048D8003151800A550F5C0ED8B4305DD8A077EFFF
:1048E80024F079EF24F07BEF24F08EEF24F0090117
:1048F8000901304B312B090109013151800A550F4B
:104908005C0ED8B4305DD8A08CEF24F08EEF24F084
:104918007BEF24F0000E09010901306F000E090138
:10492800316F090109013151800A590F100ED8B4AD
:10493800305DD8A0A2EF24F0A4EF24F0A6EF24F075
:10494800E8EF24F00801080104050511D8A4AFEF29
:1049580024F0B1EF24F0BEEF24F0FDEC2FF0000EB0
:1049680008010801046F000E0801056F0A0E8C6E1D
:10497800D5EF24F0080108010451020A0511D8A452
:10498800C8EF24F0CAEF24F0D5EF24F020EC30F083
:10499800000E08010801046F000E0801056F0A0ED9
:1049A8008C6E09010901304B312B09010901315184
:1049B800800A590F100ED8B4305DD8A0E6EF24F065
:1049C800E8EF24F0A6EF24F0000E09010901306F8A
:1049D800000E0901316F090109013151800A420FA6
:1049E800800ED8B4305DD8A0FCEF24F0FEEF24F0A0
:1049F80000EF25F042EF25F0080108010405051134
:104A0800D8A409EF25F00BEF25F018EF25F0FDEC01
:104A18002FF0000E08010801046F000E0801056F51
:104A28000A0E8C6E2FEF25F0080108010451020AC6
:104A38000511D8A422EF25F024EF25F02FEF25F05B
:104A480020EC30F0000E08010801046F000E080188
:104A5800056F0A0E8C6E09010901304B312B0901D3
:104A680009013151800A420F800ED8B4305DD8A0B8
:104A780040EF25F042EF25F000EF25F0000E090188
:104A88000901306F000E0901316F09010901315127
:104A9800800A560FF80ED8B4305DD8A056EF25F02E
:104AA80058EF25F05AEF25F09CEF25F00801080192
:104AB80004050511D8A463EF25F065EF25F072EF22
:104AC80025F0FDEC2FF0000E08010801046F000E20
:104AD8000801056F0A0E8C6E89EF25F008010801A0
:104AE8000451020A0511D8A47CEF25F07EEF25F0C9
:104AF80089EF25F020EC30F0000E08010801046F62
:104B0800000E0801056F0A0E8C6E09010901304B71
:104B1800312B090109013151800A560FF80ED8B41A
:104B2800305DD8A09AEF25F09CEF25F05AEF25F0DC
:104B3800000E09010901306F000E0901316F0901EA
:104B480009013151800A790F080ED8B4305DD8A018
:104B5800B0EF25F0B2EF25F0B4EF25F0F6EF25F031
:104B68000801080104050511D8A4BDEF25F0BFEF21
:104B780025F0CCEF25F0FDEC2FF0000E0801080120
:104B8800046F000E0801056F0A0E8C6EE3EF25F026
:104B9800080108010451020A0511D8A4D6EF25F02E
:104BA800D8EF25F0E3EF25F020EC30F0000E0801F7
:104BB8000801046F000E0801056F0A0E8C6E0901CA
:104BC8000901304B312B090109013151800A790F54
:104BD800080ED8B4305DD8A0F4EF25F0F6EF25F034
:104BE800B4EF25F0000E8C6E14EF26F008010801D2
:104BF8000007D8A001072FEF26F008010801024B93
:104C0800032B2FEF26F008010801004B012B2FEF93
:104C180026F0080108010207D8A003072FEF26F0A5
:104C2800080106C832F9080107C833F9090129EF54
:104C380026F009013251030AD9E0060ADEE0020A29
:104C4800E2E00A0AE6E02FEF26F009013351000AF4
:104C5800F0E02FEF26F0120008010801154B162B83
:104C6800080108010651030A0711D8A43EEF26F0EF
:104C780040EF26F049EF26F0000E090109012E6FDA
:104C8800000E09012F6F86EF26F008010801065172
:104C9800050A0711D8A453EF26F055EF26F05EEF6A
:104CA80026F0010E090109012E6F000E09012F6F70
:104CB80086EF26F0080108010651070A0711D8A453
:104CC80068EF26F06AEF26F073EF26F0020E09016E
:104CD80009012E6F000E09012F6F86EF26F00801DB
:104CE800080106510D0A0711D8A47DEF26F07FEFC1
:104CF80026F086EF26F0030E090109012E6F000E3B
:104D080009012F6F090109012A51030A2B11D8A49F
:104D180090EF26F092EF26F09BEF26F0000E0901A7
:104D280009012C6F000E09012D6FD8EF26F009013B
:104D380009012A51050A2B11D8A4A5EF26F0A7EFDF
:104D480026F0B0EF26F0010E090109012C6F000EC4
:104D580009012D6FD8EF26F0090109012A51070A28
:104D68002B11D8A4BAEF26F0BCEF26F0C5EF26F039
:104D7800020E090109012C6F000E09012D6FD8EFF1
:104D880026F0090109012A510D0A2B11D8A4CFEFE9
:104D980026F0D1EF26F0D8EF26F0030E090109011D
:104DA8002C6F000E09012D6F09012EC930F9090178
:104DB8002FC931F9090109012C510901305F090195
:104DC80009012D510901315B09013029D8B4312974
:104DD800D8A4F1EF26F0F3EF26F00EEF27F0D890E5
:104DE8000801080115350901306F08010801163559
:104DF8000901316F000E09013025E96E040E090121
:104E08003121EA6E020EEE6E000EED6E4DEC2FF0C3
:104E18001BEF28F009012EC930F909012FC931F912
:104E2800090109012C510901305F090109012D51BE
:104E38000901315B09013129FE0ED8B43019D8A413
:104E480028EF27F02AEF27F045EF27F0D890080140
:104E5800080115350901306F0801080116350901E7
:104E6800316F000E09013025E96E040E0901312168
:104E7800EA6E040EEE6E000EED6E97EC2EF01BEF50
:104E880028F009012EC930F909012FC931F90901A2
:104E980009012C510901305F090109012D5109014E
:104EA800315B09013129FD0ED8B43019D8A45FEF60
:104EB80027F061EF27F07CEF27F0D8900801080170
:104EC80015350901306F0801080116350901316FE0
:104ED800000E09013025E96E040E09013121EA6E40
:104EE800030EEE6E000EED6E14EC2FF01BEF28F0A3
:104EF80009012EC930F909012FC931F90901090140
:104F08002C510901305F090109012D510901315B5B
:104F1800090130053111D8A494EF27F096EF27F056
:104F2800B1EF27F0D8900801080115350901306F55
:104F38000801080116350901316F000E09013025F5
:104F4800E96E040E09013121EA6E030EEE6E000EC1
:104F5800ED6E14EC2FF01BEF28F009012EC930F983
:104F680009012FC931F9090109012C510901305FE3
:104F7800090109012D510901315B09013051020A6A
:104F88003111D8A4CAEF27F0CCEF27F0E7EF27F0CC
:104F9800D8900801080115350901306F080108018A
:104FA80016350901316F000E09013025E96E040E2E
:104FB80009013121EA6E040EEE6E000EED6E97ECDB
:104FC8002EF01BEF28F009012EC930F909012FC96D
:104FD80031F9090109012C510901305F0901090161
:104FE8002D510901315B09013051030A3111D8A44F
:104FF80000EF28F002EF28F01BEF28F0D890080106
:10500800080115350901306F080108011635090135
:10501800316F000E09013025E96E040E09013121B6
:10502800EA6E020EEE6E000EED6E4DEC2FF02AC900
:1050380006F82BC907F81200000E090109011A6FBA
:10504800000E09011B6F090109011B51800A800F1D
:10505800100ED8B41A5DD8A034EF28F036EF28F037
:1050680038EF28F0CEEF28F0000E090109011E6F75
:10507800000E09011F6F090109011F51800A800FE5
:10508800100ED8B41E5DD8A04CEF28F04EEF28F0D3
:1050980050EF28F0BBEF28F009011AC922F90901DD
:1050A8001BC923F90901223B233BF00E2317225188
:1050B8000F0B2313F00E2217090109011E510901D4
:1050C8002225090109012D6F090109011F51090153
:1050D800232109012E6F43EC30F00901246F24C904
:1050E80025F90901266BD890090109011E35090126
:1050F800276F090109011F350901286F09011AC91C
:1051080029F909011BC92AF9050ED890090129377F
:105118002A37E82E89EF28F0000E09012925090110
:105128002B6F020E09012A2109012C6F0901275151
:1051380009012B25E96E0901285109012C21EA6E84
:1051480025C9EEFF26C9EDFF090109011E4B1F2BDA
:10515800090109011F51800A800F100ED8B41E5D85
:10516800D8A0B9EF28F0BBEF28F050EF28F00901DC
:1051780009011A4B1B2B090109011B51800A800FD9
:10518800100ED8B41A5DD8A0CCEF28F0CEEF28F0D6
:1051980038EF28F0000E090109011C6F000E090103
:1051A8001D6F090109011D51800A800F100ED8B426
:1051B8001C5DD8A0E2EF28F0E4EF28F0E6EF28F035
:1051C80078EF29F0000E09010901206F000E09018E
:1051D800216F090109012151800A800F100ED8B4EE
:1051E800205DD8A0FAEF28F0FCEF28F0FEEF28F0B9
:1051F80065EF29F009011CC922F909011DC923F924
:105208000901090120510901222709010901215138
:1052180009012323000E09012225090109012D6F27
:10522800010E0901232109012E6F43EC30F0090119
:10523800246F24C925F90901266BD89009010901B1
:1052480020350901276F0901090121350901286F56
:1052580009011CC929F909011DC92AF9050ED890A7
:10526800090129372A37E82E33EF29F0000E090102
:10527800292509012B6F000E09012A2109012C6F2C
:105288000901275109012B25E96E09012851090156
:105298002C21EA6E25C9EEFF26C9EDFF0901090197
:1052A800204B212B090109012151800A800F100E82
:1052B800D8B4205DD8A063EF29F065EF29F0FEEFA0
:1052C80028F0090109011C4B1D2B090109011D5179
:1052D800800A800F100ED8B41C5DD8A076EF29F094
:1052E80078EF29F0E6EF28F0010E090109012D6F8A
:1052F800020E09012E6F43EC30F00901226F0901FB
:10530800225108010801176F0801186B12000901E2
:1053180009011C051D11D8A494EF29F096EF29F076
:10532800CFEF29F0000E090109011E6F000E0901D7
:105338001F6F090109011F51800A7E0F020ED8B4A0
:105348001E5DD8A0AAEF29F0ACEF29F0AEEF29F046
:10535800CFEF29F00901286F000E09010901426FFA
:10536800090128511EC940F91FC941F986EC2FF0DF
:10537800090109011E4B1F2B090109011F51800A50
:105388007E0F020ED8B41E5DD8A0CDEF29F0CFEF66
:1053980029F0AEEF29F0090109011A051B11D8A45B
:1053A800D8EF29F0DAEF29F0E8EF2AF0000E09012A
:1053B8000901206F000E0901216F0901090121511E
:1053C800800A800F100ED8B4205DD8A0EEEF29F027
:1053D800F0EF29F0F2EF29F061EF2AF0000E090151
:1053E8000901246F000E0901256F090109012551E2
:1053F800800A800F100ED8B4245DD8A006EF2AF0DA
:1054080008EF2AF00AEF2AF04EEF2AF0D8900901A7
:10541800090124350901286F090109012535090108
:10542800296F090120C92AF9090121C92BF9050E9B
:10543800D89009012A372B37E82E1CEF2AF0000EE6
:1054480009012A2509012C6F020E09012B210901E6
:105458002D6F0901285109012C25E96E09012951EF
:1054680009012D21EA6E000EEE6E000EED6E0901A7
:105478000901244B252B090109012551800A800FB8
:10548800100ED8B4245DD8A04CEF2AF04EEF2AF0C5
:105498000AEF2AF009010901204B212B0901090112
:1054A8002151800A800F100ED8B4205DD8A05FEF7C
:1054B8002AF061EF2AF0F2EF29F0000E0901090144
:1054C800226F000E0901236F090109012351800A87
:1054D800800F100ED8B4225DD8A075EF2AF077EFB0
:1054E8002AF079EF2AF0E8EF2AF0000E0901090105
:1054F800266F000E0901276F090109012751800A4B
:10550800800F100ED8B4265DD8A08DEF2AF08FEF4B
:105518002AF091EF2AF0D5EF2AF0D8900901090175
:1055280026350901286F0901090127350901296F65
:10553800090122C92AF9090123C92BF9050ED890B6
:1055480009012A372B37E82EA3EF2AF0000E0901AC
:105558002A2509012C6F000E09012B2109012D6F45
:105568000901285109012C25E96E09012951090170
:105578002D21EA6E010EEE6E000EED6E0901090195
:10558800264B272B090109012751800A800F100E8D
:10559800D8B4265DD8A0D3EF2AF0D5EF2AF091EF42
:1055A8002AF009010901224B232B09010901235182
:1055B800800A800F100ED8B4225DD8A0E6EF2AF03A
:1055C800E8EF2AF079EF2AF01200000E090109012C
:1055D800306F000E0901316F090109013151800A4C
:1055E800800F100ED8B4305DD8A0FDEF2AF0FFEF81
:1055F8002AF001EF2BF091EF2BF0000E09010901C1
:10560800346F000E0901356F090109013551800A0F
:10561800800F100ED8B4345DD8A015EF2BF017EF1B
:105628002BF019EF2BF07EEF2BF0D8900901090130
:1056380034350901386F0901090135350901396F18
:10564800090130C93AF9090131C93BF9050ED89069
:1056580009013A373B37E82E2BEF2BF0000E0901F2
:105668003A2509013C6F020E09013B2109013D6FF2
:105678000901385109013C25E96E0901395109012F
:105688003D21EA6EEF5009010901426F090130C955
:105698003EF9090131C93FF909013E3B3F3BF00E94
:1056A8003F173E510F0B3F13F00E3E17090109013A
:1056B800345109013E2509010901406F0901090119
:1056C800355109013F210901416F86EC2FF009018D
:1056D8000901344B352B090109013551800A800F26
:1056E800100ED8B4345DD8A07CEF2BF07EEF2BF0F1
:1056F80019EF2BF009010901304B312B0901090180
:105708003151800A800F100ED8B4305DD8A08FEFC9
:105718002BF091EF2BF001EF2BF0000E090109019E
:10572800326F000E0901336F090109013351800AF4
:10573800800F100ED8B4325DD8A0A5EF2BF0A7EFDC
:105748002BF0A9EF2BF035EF2CF0000E0901090121
:10575800366F000E0901376F090109013751800AB8
:10576800800F100ED8B4365DD8A0BDEF2BF0BFEF78
:105778002BF0C1EF2BF022EF2CF0D8900901090192
:1057880036350901386F0901090137350901396FC3
:10579800090132C93AF9090133C93BF9050ED89014
:1057A80009013A373B37E82ED3EF2BF0000E0901F9
:1057B8003A2509013C6F000E09013B2109013D6FA3
:1057C8000901385109013C25E96E090139510901DE
:1057D8003D21EA6EEF5009010901426F090132C902
:1057E8003EF9090133C93FF9090109013651090197
:1057F8003E2709010901375109013F23000E09011C
:105808003E2509010901406F010E09013F210901E7
:10581800416F86EC2FF009010901364B372B09013E
:1058280009013751800A800F100ED8B4365DD8A010
:1058380020EF2CF022EF2CF0C1EF2BF00901090129
:10584800324B332B090109013351800A800F100EA6
:10585800D8B4325DD8A033EF2CF035EF2CF0A9EF97
:105868002BF017C842F9010E09010901406F020E19
:105878000901416F86EC2FF01200E9EC2AF0000EC6
:10588800090109012A6F000E09012B6F090109019D
:105898002B51800A800F020ED8B42A5DD8A057EF8A
:1058A8002CF059EF2CF05BEF2CF0AEEF2CF0000E43
:1058B80081BA010E09012E6F2F6B080108011C51D6
:1058C80009012F1905E1080108011B5109012E19C9
:1058D800D8B471EF2CF073EF2CF075EF2CF0AEEF1D
:1058E8002CF0050E09010901306F000E0901316F16
:1058F8005BEC30F009012E6FE80E09010901356FE4
:1059080009012E51D9EC2FF0000E09010901306F61
:10591800000E0901316F5BEC30F009012E6FE80EC3
:1059280009010901356F09012E51D9EC2FF0090140
:1059380009012A4B2B2B090109012B51800A800FE1
:10594800020ED8B42A5DD8A0ACEF2CF0AEEF2CF044
:105958005BEF2CF097EC2EF015C82CF916C82DF932
:10596800090109012DAFBBEF2CF0BDEF2CF0BFEF03
:105978002CF049EF2DF0D890090109012C350901C7
:105988002E6F090109012D3509012F6F000E09013C
:105998002E25E96E040E09012F21EA6EEE50010A48
:1059A800ED10D8A4DAEF2CF0DCEF2CF0DEEF2CF0C1
:1059B8003CEC24F0D890090109012C3509012E6F1F
:1059C800090109012D3509012F6F000E09012E2546
:1059D800E96E040E09012F21EA6EEE50020AED105D
:1059E800D8A4F9EF2CF0FBEF2CF0FDEF2CF014EC21
:1059F8002FF0D890090109012C3509012E6F0901F2
:105A080009012D3509012F6F000E09012E25E96EB8
:105A1800040E09012F21EA6EEE50030AED10D8A4F6
:105A280018EF2DF01AEF2DF01CEF2DF04DEC2FF0A4
:105A3800D890090109012C3509012E6F09010901C6
:105A48002D3509012F6F000E09012E25E96E040E70
:105A580009012F21EA6EEE50040AED10D8A437EFA1
:105A68002DF039EF2DF03BEF2DF097EC2EF00901DA
:105A780009012C07D8A02D07090109012DAF47EF0F
:105A88002DF049EF2DF0BFEF2CF0000E81BA010E7A
:105A9800080108011B6F08011C6B000E81BA010E7A
:105AA80009012E6F2F6B080108011C5109012F19DC
:105AB80005E1080108011B5109012E19D8B467EF47
:105AC8002DF069EF2DF06BEF2DF093EF2DF0050E13
:105AD80009010901306F000E0901316F5BEC30F0EC
